:1000000000800020BD010000B90900007109000056
:1000100071090000710900007109000071090000F8
:10002000710900007109000071090000B9090000A0
:10003000B909000071090000AD1B0000B11B0000F0
:10004000B9090000B9090000B9090000B9090000A8
:10005000B9090000B9090000B9090000B909000098
:10006000B9090000B9090000B9090000B909000088
:10007000B9090000B9090000B9090000B909000078
:10008000B9090000B9090000B9090000B909000068
:10009000B9090000B9090000B9090000B909000058
:1000A000B9090000B9090000B9090000B909000048
:1000B000B9090000B9090000B9090000B909000038
:1000C000B9090000B9090000B9090000B909000028
:1000D000B9090000B9090000B9090000B909000018
:1000E000B9090000B9090000B9090000B909000008
:1000F000B9090000B9090000B9090000B9090000F8
:10010000B9090000B9090000B9090000B9090000E7
:10011000B9090000B9090000B9090000B9090000D7
:10012000B9090000B9090000B9090000B9090000C7
:10013000B9090000B9090000B9090000B9090000B7
:10014000B9090000B9090000B9090000B9090000A7
:10015000B9090000B9090000B9090000B909000097
:10016000B909000049100000B9090000B9090000F0
:10017000B9090000B9090000B9090000B909000077
:10018000B9090000B9090000B9090000B909000067
:10019000B9090000B9090000B9090000B909000057
:1001A000B9090000B9090000B9090000B909000047
:1001B000B9090000B9090000B9090000564B4CF21A
:1001C000205210B51A804DF628121A8000BF00BFC9
:1001D00000F0F6FB514B4FF010621A60504A9A60E3
:1001E000504ADA60504A136813F4807304D14F49BF
:1001F0000B604FF4A85313604D4B1A78110703D5C9
:100200001A7842F008021A704A4B4B492A221A7097
:100210004A4A4B4B8B4204D252F8040F43F8040B6A
:10022000F8E7484B484900228B4202D243F8042B9E
:10023000FAE74649464A002352F8230041F82300D2
:1002400001336F2BF8D1434B434A802103F8011B44
:100250009342FBD1414B3D4A1A60414B8A221A70AE
:10026000A3F5805324225A70A0221A709A7992071B
:10027000FCD59A79D406FCD43A4A937903F00C035E
:10028000082B384BF9D103221A7140225A719A79FE
:100290009006FCD5334A9179324B4906FBD5324A58
:1002A000324911600221516020221A709A7902F0BD
:1002B0000C020C2AFAD12E4B2E4A1A602E4B2F4AD2
:1002C0001A6000225A60072243F8042C2C4AC3F813
:1002D0000C2D62B600F004FC144B1B68DA0705D540
:1002E000284800F0E9FB284B284A1A60284B1B7865
:1002F0005B0609D5244C254B22689A4204D121483B
:1003000000F0DAFB0023236000F060FB02F0D6F877
:1003100001F056FCFEE700BF0E200540308004408F
:10032000823F04000100002B10D0034014D0034092
:1003300002D0074000E007401490FF1F4830000043
:100340002087FF1F1490FF1F183200200082FF1F1C
:100350000000000000E400E05FE400E008ED00E0E1
:100360000050064000400640448004400000030165
:1003700004800440C010050014E000E0FF76010096
:1003800000002020282B57631CE00340A5C3945A8B
:1003900000F00740FFFFFFFFFFFFFFFFFFFFFFFF32
:1003A000FFFFFFFFFFFFFFFFFFFFFFFFFFFFFFFF5D
:1003B000FFFFFFFFFFFFFFFFFFFFFFFFFFFFFFFF4D
:1003C000FFFFFFFFFFFFFFFFFFFFFFFFFFFFFFFF3D
:1003D000FFFFFFFFFFFFFFFFFFFFFFFFFFFFFFFF2D
:1003E000FFFFFFFFFFFFFFFFFFFFFFFFFFFFFFFF1D
:1003F000FFFFFFFFFFFFFFFFFFFFFFFFFFFFFFFF0D
:10040000FFFFFFFFFFFFFFFFFFFFFFFFDEF9FFFF23
:1004100010B5054C237833B9044B13B10448AFF33E
:1004200000800123237010BD1490FF1F0000000006
:1004300044300000084B10B51BB108490848AFF321
:1004400000800848036803B910BD074B002BFBD0A0
:10045000BDE81040184700BF000000001890FF1FC3
:10046000443000001490FF1F000000000548064AB9
:1004700000790649064B1070FF20002208601A70B0
:10048000704700BF3890FF1F1F80004080F00F4072
:100490004090FF1F10B5044601F04CFB204610BDF4
:1004A00010B4034C034B21601A6010BC704700BFAE
:1004B0003490FF1F3090FF1FF8B53F4C3F4F404D29
:1004C000404EFF23236001210F2000F015FD012184
:1004D000162000F011FD0121172000F00DFD012173
:1004E000092000F009FD01210A2000F005FD01218D
:1004F0000D2000F001FD01210B2000F0FDFC012189
:100500000C2000F0F9FC082000F064FC2E4B186869
:1005100001F08EFD0146032000F06CFC80210320D9
:1005200000F05AFB294B2A4A1A600221032000F0EE
:10053000E3FC284BDFF8A0E0D3F800C03B680021C3
:100540001FFA8CF219601C61DA83DA829A8BD971F6
:1005500092B242F008029A839C8B99820120988083
:10056000A4B23A79997144F00204CCF1000C9C8356
:1005700099619860C3F80CC04FF08053CEF80030FA
:1005800002F180424FF0402302F5043241F232047E
:100590001C60B223117013703A7953119B0003F160
:1005A000604302F01F0103F561431032884045F8B3
:1005B00022601860F8BD00BF80F00F403890FF1F28
:1005C0000082FF1F6D0400003090FF1F00A0044058
:1005D000020301003490FF1F0C0008E0F0B5154C39
:1005E0002378144803F0FF02002BF9D1124E134B6D
:1005F0003768DFF854E0124DDFF850C00124047072
:100600003960186837790F4E00F0E7011960DEF89D
:1006100000100EF5883E01390EF1980E29604BF658
:10062000EF61CCF800102A60CEF8004037701860F7
:10063000F0BD00BF4090FF1F3890FF1F00900340A7
:100640004C9003401B8000400890034004900340FE
:1006500010B5064C0021204601F008FA2046044A55
:100660000449BDE8104001F023BC00BF3890FF1FD3
:100670002087FF1F9504000070B5114C206850B111
:10068000104A01881368C51801338B422D7A136014
:1006900010D0284670BD032000F034FC20600028F4
:1006A000F9D0438801888B42F5D2074D054A8E1E4A
:1006B0002E60E8E701F07CF900232360284670BD36
:1006C0009C3000204890FF1FA430002010B5044645
:1006D000FFF7D2FF032C06D0FF2808D00024FFF735
:1006E000CBFF032CF8D1F028F6D1002010BD022C4E
:1006F000EEDC0134ECE700BF08B5FFF7BDFFFF28D3
:1007000008D0F02804D00020BDE80840FFF7DEBF85
:10071000002008BDFFF7B0FFF02807D0FF2808BF72
:100720000320F0D1BDE80840FFF7D0BF012008BD8D
:10073000F0B4FF24134F2646002505F5A0410131F2
:100740000144002244FA02F313F0010302F1010212
:1007500014BF0E700B70082A01F10101F2D10A35A5
:10076000282D02D017F8014FE7E700F5A043283302
:100770000021FF22017042720A309842FAD1F0BC87
:10078000704700BFAC2E000001F098B82DE9F04F83
:100790006D4E6E4CDFF8CC916D4DDFF8CCA1DFF8DB
:1007A000CCB183B0304645F22802002102F06EF948
:1007B00045F228020021204602F068F93046FFF792
:1007C000B7FF2046FFF7B4FF624BC9F80040012095
:1007D0001E6001F0FDF9604A45F228010446FFF76A
:1007E0005FFE5E4B20461C60FFF766FE2E46002330
:1007F00001931C4640270CE0DBF80020D11802339F
:10080000487A0A7A336042EA0020B0F57F4F0FDC65
:100810001FBB2B68DAF800209342EDDBFFF72CFFBB
:100820008046FFF729FF48EA0020B0F57F4FEFDD53
:100830004FF6FF73984200F083800120FFF746FFD8
:10084000464A444B1068434AD9F800101B68C9F85F
:1008500000301160FFF7C2FEC9E7D9F80030234429
:10086000C1075A784CBF3A43BA435A709A78810705
:100870004CBF3A43BA439A70DA7841074CBF3A43C7
:10088000BA43DA701A7901074CBF3A43BA431A7176
:100890005A79C1064CBF3A43BA435A719A798106D4
:1008A0004CBF3A43BA439A71DA7941064CBF3A4396
:1008B000BA43DA711A7A01064CBF3A43BA431A7244
:1008C000DA7AC1054CBF3A43BA43DA721A7B810522
:1008D0004CBF3A43BA431A735A7B41054CBF3A4363
:1008E000BA435A739A7B01054CBF3A43BA439A7391
:1008F000DA7BC1044CBF3A43BA43DA731A7C8104F1
:100900004CBF3A43BA431A745A7C41044CBF3A4331
:10091000BA435A749A7C010404F114044CBF3A435C
:10092000BA43B4F5A04F9A74FFF673AF019B072B3F
:10093000DCBF01330193019A094B00249F5C68E7F7
:10094000FFF7DAFE7CE700BF4C90FF1F74E0FF1F4B
:100950004890FF1F4490FF1F60E31600A83000205E
:10096000B02E0000A0300020A43000209C300020D9
:1009700008B5104C08E0236859050DD423681A0502
:100980000FD42368DB0411D423685803F3D500F097
:100990005BFB23685905F1D500F00EF823681A05B2
:1009A000EFD500F009F82368DB04EDD500F004F87A
:1009B000EAE700BF3480044008B5FFF7D9FF00BF65
:1009C000014B10221A80704700200540704700BF7D
:1009D000094908B50B6830B16A461844A2F580523F
:1009E000904202D20860184608BD01F061FD0C2358
:1009F00003604FF0FF3008BD2487FF1F10B40F4B7A
:100A000053F8302092F880422CB1012369B182F86A
:100A1000803010BC704703EBC0035B681A6841B9B3
:100A200022F002021A6010BC704782F8003110BC3C
:100A3000704742F003021A6010BC7047BC2E0000E1
:100A40001C4A02EBC00301295B6811D004291BD0AA
:100A500052F83000002280F8802229B1022920D0EB
:100A6000032922D01A6070474FF480721A607047D1
:100A700052F830004FF4A27280F880121A601A689F
:100A800022F020021A60704752F830104FF4A27220
:100A9000012081F880021A601A6842F020021A6070
:100AA000704740F203121A6070474FF481721A6067
:100AB000704700BFBC2E000030B4054B054D064CFE
:100AC000002210211A602A602060196030BC704733
:100AD00014D0034004D0034000D00340704700BF4F
:100AE000324B3349DFF8E8C0324A4FF40000F0B52A
:100AF00018604FF0807018604FF0007018604FF071
:100B0000806018604FF0006018602B4E2B4D2C4C0D
:100B1000DFF8C0E02B4F0020086028234BF6FF7160
:100B2000CCF80010CEF80030336013602B602360E7
:100B30003B60B3629362092245F8242CC4F8D80FB5
:100B400005F57F65C7F8D41F07F5FF2707F5FA6796
:100B5000C6F8F83F2B6006F5FF26C4F8D42F05F53C
:100B6000FD2504F5FF24386004F5FD641648C6F839
:100B7000F41706F2F47605F5FF6583B02B60236069
:100B8000026001F09DF8FFF7A9FF104C2368009365
:100B9000009B132BFAD900F091FE23680193019B6F
:100BA000B3F5967FF9D303B0F0BD00BF08E100E0D4
:100BB000048003401C8003401480034024800340D1
:100BC0002C8003403480034000800B40AC30002078
:100BD000088003400C800340282838B52ED0002917
:100BE00004464FDD5F4B1B78012505FA03F28A426C
:100BF00002D8212837D938BD0338C2B2012A3AD9E0
:100C0000202C4AD0192C48D0574A126802FB0112F6
:100C100022FA03F31D2800F29B80DFE800F0928B9C
:100C2000847D9999766F99999999999999999968E3
:100C3000615A53994C99999999999945494B1B78BF
:100C40000B2B08D90C2B1CBF0C3B19410846BDE8E7
:100C5000384001F0A5B8C3F10C0399400846BDE83F
:100C6000384001F09DB82946FFF7C8FE2946BDE887
:100C70003840FFF7E5BE3D4A126802FB011222FA36
:100C800003F3C7E72128B6D80021FFF7B7FE2046B7
:100C90000121BDE83840FFF7D3BE354A126802FB98
:100CA000011222FA03F3B5E73249334A0B604FF4DD
:100CB0005173136038BD3149314A0B604FF45173A1
:100CC000136038BD2F49304A0B6040F24443136033
:100CD00038BD2E492E4A0B6040F24443136038BDA4
:100CE0002C492D4A0B6040F24443136038BD2B4918
:100CF0002B4A0B6040F24443136038BD29492A4A0D
:100D00000B6040F24443136038BD2849284A0B6009
:100D100040F24443136038BD2649274A0B6040F235
:100D20004443136038BD2549254A0B6040F24443D3
:100D3000136038BD2349244A0B604FF4517313608C
:100D400038BD2249224A0B604FF45173136038BDFD
:100D5000212C3FF650AF7F29D4BF0021012120462E
:100D600093E700BF2887FF1F0880034008900340D7
:100D700008800B4010800B4048A0044018800B40B6
:100D80004CA004401880034008B004401080034089
:100D900004B004404080034018C004403880034041
:100DA00014C004402880034010B004402080034059
:100DB0000CB004403080034010C004404880034021
:100DC0001CC004401890034034900440109003402D
:100DD0003090044038B1102828BF1020044AC3B214
:100DE000107813707047024A01231078137070470F
:100DF0002887FF1F2DE9F8430E4680463249334DC0
:100E0000304601F007FB47F6122300281ABF1D46A3
:100E10004FF002094FF00109002425FA04F001F017
:100E200003F94FF05E51074601F056F9014630468E
:100E300001F004FB30B90134072CEED1E80901F0D0
:100E4000F3F807463146384601F0FAF94FF07C5185
:100E500001F038F801F006FB4FF6FF729042A8F15E
:100E6000030328BF1046012B29D9B8F1170F17D853
:100E7000174B23FA08F303F0010383F0010223B9AF
:100E8000B8F1190F0FD0BDE8F883124B124D13497A
:100E90001A6044EAC9042A6008601C60BDE8F8834F
:100EA000B8F1200FECD10E4B0E4D0F49002244EA51
:100EB000C9041A602A6008601C60BDE8F8830B4B07
:100EC0000B4D0C49F2E700BF001BB740006CDC0281
:100ED0006006F00000800340048003400880034067
:100EE00000800B4004800B4008800B4000900340C2
:100EF0000490034008900340212801D8FFF7A0BDCB
:100F0000704700BF431E032B14D872B60A4951F82C
:100F1000230068B170B4094C058834F81320466882
:100F200041F82360521B24F8132062B670BC70474E
:100F300062B6704700207047083100200032002060
:100F4000F0B472B61A491B4E012311F8014B194F28
:100F50009A00240742F0010505D556F8324064B1E5
:100F600056F83520BAB10133052BEED162B6124BDB
:100F700000221A70F0BC00F01BBD0F4C0F4D217801
:100F800007EB4313083001395860217047F832509D
:100F900062B6F0BC7047084A0949137807EBC504EC
:100FA0000830013B6060137047F8351062B6F0E717
:100FB000CC2F00000080FF1F8531002088004000FA
:100FC000C8004000431E032B1DD81B4A400140F0BF
:100FD000100030B4104472B6184CE25C032A1BD8DF
:100FE000DFE802F00212151703220D88E25410F018
:100FF000080F14BFC823882343EA05430831416022
:10100000036062B630BC704708300222EDE705226B
:10101000EBE708300422E8E7094A52F8230038B128
:10102000084A52F82300416042F8231062B6E9E70B
:1010300042F82310034AF7E70080FF1F9431002095
:101040005C3100206C3100202DE9F04FDFF814B343
:10105000DFF814A387B044E0AD4F4FEA930807EBE5
:10106000C809013ED9F8042003F00803F6B2A2F142
:10107000080003F0FF04002B40F0038157F83830DC
:101080001B0C99B222F8081C002B00F0F180A14B38
:1010900022F8064C42F8044C53F82620002A00F0AF
:1010A0006C819D4D55F8263058609C4C45F82600C3
:1010B00034F81630194424F8161000F059FC0028B2
:1010C00000F05481964A974B19F0080F00F1080080
:1010D00018BF1346C9F8040047F8383008238BF8C6
:1010E00000309BF80040E4B260071BD58E4B1B78A4
:1010F000ABB18E490A7802F0FF032AB1013BDBB2A3
:101100000B70002B00F0B58389490A7802F0FF03C9
:101110002AB1013BDBB20B70002B00F0F6800423F8
:101120008BF8003004F0080303F0FF02002B00F0FE
:10113000D5809AF80030DBB21E098DD19C08744F1F
:1011400057F8342007EBC401C2F38302013A49681F
:101150000C2A7ED8DFE802F081817D7D7D7D7D7D5A
:10116000427D7D7D07000868724B734D01936C4B87
:101170004A68724E47F8343081B240F281646D4B58
:101180006A60286000220120A1423A611A60BA61B7
:10119000307000F2F680B1F5D06F80F0E882B1F5E2
:1011A000817F00F0D38200F2D881802900F04D8148
:1011B000822940F09282A988614B01F07F010429C5
:1011C00000F28C825F4C89000B44227062701A78A6
:1011D000930740F13883207002203AE1554B019388
:1011E0001A6862B3584B5949544E18880C7896F8CF
:1011F00000E04028054684F0010C28BF402544F05B
:101200000204BEF1000F81F800C0A0EB050007EB5F
:10121000C40C0CBF8821C82180B28EF0010E41EAB7
:101220000541CCF80420188086F800E02A4447F8ED
:10123000341010B9402D18BF0022019B1A603E4B9C
:101240001A88B2F5A06F04D100219A785970404BEA
:101250001A70404A0123137040E7374A158842F25A
:101260002100854200F052812D4A47F83420F0E7F2
:101270002B4A2C4B19F0080F18BF134647F838308B
:101280002CE700F095FB344A344952F82630002B05
:1012900000F02D8158688C5D42F8260003F10802A9
:1012A000C9F80420032C05D8DFE804F0120F15025A
:1012B00004228A551A8819F0080F0CBF8823C82306
:1012C00043EA024347F8383008E702228A55F1E73B
:1012D00003228A55EEE705228A55EBE7E00700F185
:1012E0007881210600F1A281A20706D51C4A1D497A
:1012F00013780220DBB213700870E30602D5194B95
:1013000010221A7007B0BDE8F08F00F08BFB06E7E3
:101310000080FF1F08310020B43000200032002080
:10132000C8004000880040009031002019310020A2
:1013300098310020B03000207C310020183100208E
:10134000C020074088310020C430002084310020B4
:1013500098200740942007405C3100209431002001
:10136000882007408020074090200740B74A47F870
:101370003800137801331370B0E643F82600B44DFB
:1013800093E642F22104A14200F0AD8000F20E810A
:10139000B1F5086F00F05481B1F5106F40F09D81F8
:1013A000AC4AA9781170AC4D042402E00134142C2D
:1013B0000CD057F834301906F8D505EBC4030134C6
:1013C0005868083800F0F4FA142CF2D1A349A44B61
:1013D000A44A0291A449A54C9D4D039405964FF053
:1013E000000988461C4616460495206828B14568C1
:1013F00000F0DEFA2846002DF9D100232360049B7B
:1014000030681A46002342F8293028B1456800F0B8
:10141000CFFA2846002DF9D100223260029A98F8BE
:1014200000301146002241F8042B039A0291023B3E
:101430004FF0000122F81910032B00F2B481DFE80D
:1014400013F0E201AE01E201AE01894C02202270EC
:101450006270EA88824280F00D8286490D78402AC7
:1014600045F0020E944607EBCE0028BF4FF0400C2B
:1014700004EB0C0344600293CCEB02004FEA0C48EF
:101480004FF001090022C82444EA080385F0010452
:1014900047F83E3032700C70DFF8BCE1764BDFF875
:1014A000D481002840F02081BCF1400F1BD144F0D2
:1014B000020407EBC403029FDFF89CE15F60002A8F
:1014C00040F02781020442F0880286F800900D70F7
:1014D00007444EF834203B46402804D10020674A98
:1014E000019910800B60664A01231370B1E68B5D91
:1014F000032B00F2248101A252F823F0DD1000003A
:10150000DD1000002116000027160000928862B945
:101510005C4ACD1D11F8013B02F8013F8D42F9D123
:10152000594A1268862A00F0C9805249524E0878FA
:10153000327840F0020580F00100087007EBC50129
:10154000002A4FF00000486082F001020CBF8821A1
:10155000C82147F83510327086E640F202329142D7
:1015600040F0B080A98801F07F01042900F2B58025
:101570006A88002A40F0B180444C89000C448146BE
:10158000217841F0020121700020029080468446BB
:10159000044638490D7845F0020E07EBCE03B9F149
:1015A000000F5C600CBF8824C8246DE742F2212440
:1015B000A14240F08E80A988002940F04281344B3E
:1015C000344A354C1B68AD78136081460A46257055
:1015D000DAE72B49204B3148264EDFF8B0C0304DBA
:1015E000DFF8D4E02F4F02240C702F4C18605C60A1
:1015F00098602E48D8601A619A610D2332702C4C85
:101600008CF800302B4EFF232B7001209F258EF885
:1016100000303A7033702570087007B0BDE8F08F65
:1016200000238B555AE501238B5557E51749224B6B
:1016300080220D2008701A70A2077FF55EAE55E675
:10164000044A0B4C1278227003E700BF853100205A
:10165000B4300020903100200080FF1F6C3100204A
:10166000083100205C31002094310020003200203D
:10167000883100208431002018310020C43000203F
:10168000942007400732002008320020C020074085
:10169000AC30002010320020A4310020880040002F
:1016A0008820074098200740C83000201C310020C7
:1016B000842007408C20074080200740754A0F2176
:1016C000117032E7B1F5A06F07D100224FF0010988
:1016D0005AE742F221329142F7D06F4B0F221A7033
:1016E0006E4A01231370B4E540287FF6E0AE44F063
:1016F00002040EEBC401029E4E60AAB183F8009072
:10170000674A88F800503346403840334EF834205A
:10171000E5E6029B86F80090020442F0C8020D70D4
:1017200003444EF83420D7E683F80090029B5D4ACC
:1017300088F80050403840334EF83420CFE619F096
:10174000080F0CBF022303238B55C7E4A98801F0BF
:101750007F010429C1D86A88002ABED14E4C890075
:101760000C448146217821F0020121700CE74E4A99
:101770005468002CB1D06888B5F804E003E00C325E
:101780005468002CA9D013888342F8D1538873453C
:10179000F5D1000A03280CBF2078108959E64FF0D4
:1017A000010388F8003009F10109B9F1040F04F1CF
:1017B000040406F1040608F101087FF416AE3B4B61
:1017C000059E3B4DDFF8F080002018704FF00109B6
:1017D00018F8013B05F8043B1A0719D44FEA8904AD
:1017E00044F0020244F00304002347F8323047F883
:1017F0003430304B9D4209F10109E9D196F800904F
:1018000089F00102C0E64FF0000388F80030CAE713
:1018100000F0AEF818B307EB49134FEA890408301B
:101820005860204B47F8343000F0A2F868B144F01B
:10183000010307EBC30208305060194A47F8332010
:10184000CEE78146A0E6022003E6184B44F00102F1
:101850001B7847F83200154A01331370C0E7134B69
:10186000124A1B784FEA8904013347F83400137099
:10187000DAE700BE4028844628BF4FF0400C04EB56
:101880000C03CCEB00004FEA0C48029300224FF00F
:1018900001097EE619310020C0200740942007404E
:1018A000C800400088004000D02F00008531002093
:1018B000C4200740D4200740CC2F00002DE9F04180
:1018C00000F08CFA00231F491A4601EBC30041F8CF
:1018D00033200133142B42604FF000041948F4D137
:1018E000194A1A4F13681A491A4D1B4EDFF874C073
:1018F000DFF874E0DFF8748043F480231360C0F3F2
:1019000007233B70C0F307430B70000EFF2302F563
:1019100028322870D4328CF80030104D8EF8003008
:101920000F483370012388F80030702681F850404A
:101930004FF40074102107F8183C2E7004601170E9
:10194000BDE8F0810080FF1F348004409C200740E8
:10195000B0200740B42007401020074049E400E0D1
:1019600008E100E0802007408820074094200740DD
:1019700072B60D480268B2FA82F30B2B10DC4FF0FE
:101980000041D94022EA0102026062B6074803EB37
:10199000C303DB00C2180021C150104651607047DC
:1019A00062B60020704700BF2C87FF1FBC83FF1F5B
:1019B0000D4B0E4AC31AA2FB03231B090B2B0CD899
:1019C0000B4A127852B972B60A484FF000410268C9
:1019D00021FA03F31A43026062B67047064A12788E
:1019E000002AF0D0FFF7ACBABC83FF1F398EE33872
:1019F000853100202C87FF1F90310020074B084ABB
:101A00001B6810B594881BB11A885B88D31A1C44D4
:101A10000CB900F0DFF8204610BD00BFA031002057
:101A20000032002038B50E4B1B7873B90D4C21687D
:101A300061B103F0FF054B880B800420FFF7C2FA69
:101A4000256038BD084B01221A7038BDFFF790FFA2
:101A50000028F7D00146BDE838400420FFF7B2BAAD
:101A6000993100209C31002098310020F0B572B6E9
:101A700099B902688AB103790F2B0ED8274C2188B7
:101A800041FA03F5ED070AD503F1007303F59063FE
:101A9000B2EB431F03D162B6F0BD204C2188002376
:101AA00041FA03F212F0010207D00133102BF7D1F3
:101AB00062B6002203710260F0BD01259D402943FA
:101AC000218062B6164E174D174FDFF864E0D9B289
:101AD0000171346844F0020434602C6844F002045C
:101AE0002C60A6F580268224A5F5802503F10073DD
:101AF0003C6003F59063223E243D0C4C8EF80010B0
:101B00005B0131702970217003601A605A609A601D
:101B1000DA601A615A619A61DA61F0BDA63100207B
:101B2000408004403C800440008000401F80004012
:101B30001A80004003790F2B11D8094A10B4137092
:101B400072B6084904790A880123A34022EA0303F4
:101B50000B8062B61022002310BC02710360704734
:101B60001A800040A631002070B5EFF3108272B6E3
:101B70000C4C206880B10C4E00254369236073B182
:101B80009D6102B962B6457783689847EFF310828A
:101B900072B620680028F0D102B962B670BD336019
:101BA000EFE700BFA8310020AC310020FFF7DCBF19
:101BB000024A136801331360704700BFAC30002045
:101BC00008B5FEF7E1FDFEF7E1FD00F003F8FAE7E6
:101BD00000F09CBC2DE9F843314E337893B1314F7E
:101BE0003A787AB90122D9073A7036D49A0719D4CB
:101BF00000225B073A7005D52B4B1A6812B1EFF340
:101C000005820AB1BDE8F883EFF3108172B6186857
:101C100018B1264C2278002A2ED00029F2D162B6C3
:101C2000BDE8F883DFF8908098F80020002ADFD024
:101C3000DFF88890002405E0013498F80030E4B221
:101C4000A34212D959F824502B6828461B6998479B
:101C50000028F1D02B699847EEE7FFF7CFFEC8B90F
:101C6000134B1B781BB93378C0E73378C0E7337860
:101C700003F0FE033370B9E745691D60012323704B
:101C80005DB1AA6101B962B60025457783689847BE
:101C90002570B7E700F0E4F8E2E7064B1D60F1E7D6
:101CA0003087FF1FB9310020B4310020B831002047
:101CB000D687FF1FB0310020C8310020BC31002082
:101CC00030B42948294A2A4B2A4D6024E121047066
:101CD00011701B78284C082B30D00A2B2748284934
:101CE00037D00C2B0CBF35223D2212232A602360F3
:101CF00002600B60234B24491B78244ABBB10123AB
:101D00000B601360224B23491B78234A012B26D9F1
:101D1000042B0FD9082B1ED9102B94BF86238723A1
:101D20000B6013601D4B01221A7030BC70470B60B2
:101D30001360E7E784230B601360F3E700F58E2060
:101D40000F490830012213232A60236002600B60D0
:101D5000D0E73922F7E785230B601360E2E78023A1
:101D60000B601360DEE700BF004007400140074002
:101D70003187FF1F08B003400CB0034008B00B4090
:101D80000CB00B40BB31002020B0034020B00B4012
:101D90003287FF1F24B0034024B00B40BA3100202B
:101DA0000A4A0B49136843F4805313600B7843B914
:101DB000084BC0221A70084B80F30C0000B2188048
:101DC0007047044B80221A70F5E700BF2C80044056
:101DD000BB31002021C00C4000C00C4070B584B065
:101DE00072B6194B194D1A48702241260F248021D2
:101DF0001A702E701A460470197013781B06FCD5E1
:101E0000144B186862B6144B144C984298BF00EB00
:101E1000800001A998BF40000A2200F023F801A920
:101E20002046002311F8012B01333AB10A2B20F888
:101E3000022FF7D11623237004B070BD5B00DBB214
:101E4000237004B070BD00BF0000024007000240D4
:101E500006000240080002407F969800C087FF1FDE
:101E6000704700BFF0B44D1E2E46002400E0013440
:101E7000B0FBF2F302FB1300092800F130078ABF20
:101E80003730F8B2C0B206F8010F1846002BEED179
:101E90000A1953704CB1107815F8016F287001338E
:101EA000E01A834202F80169F5DB0846F0BC70478E
:101EB0000B460146184600F0F5BA00BF80F000401E
:101EC00002E000BF81F0004142001FBF5FEA410312
:101ED00092EA030F7FEA226C7FEA236C6AD04FEA12
:101EE0001262D2EB1363C1BFD21841404840414057
:101EF000B8BF5B42192B88BF704710F0004F40F409
:101F0000000020F07F4018BF404211F0004F41F424
:101F1000000121F07F4118BF494292EA030F3FD0F0
:101F2000A2F1010241FA03FC10EB0C00C3F1200303
:101F300001FA03F100F0004302D5494260EB400092
:101F4000B0F5000F13D3B0F1807F06D340084FEAFD
:101F5000310102F10102FE2A51D2B1F1004F40EBF2
:101F6000C25008BF20F0010040EA0300704749005A
:101F700040EB000010F4000FA2F10102EDD1B0FA25
:101F800080FCACF1080CB2EB0C0200FA0CF0AABF1A
:101F900000EBC25052421843BCBFD04018437047B8
:101FA00092F0000F81F4000106BF80F400000132BE
:101FB000013BB5E74FEA41037FEA226C18BF7FEA95
:101FC000236C21D092EA030F04D092F0000F08BFD7
:101FD0000846704790EA010F1CBF0020704712F0BE
:101FE0007F4F04D1400028BF40F00040704712F1FD
:101FF00000723CBF00F50000704700F0004343F062
:10200000FE4040F4000070477FEA226216BF084697
:102010007FEA23630146420206BF5FEA412390EA5A
:10202000010F40F4800070474FF0000304E000BF50
:1020300010F0004348BF40425FEA000C08BF704701
:1020400043F0964301464FF000001CE050EA0102C5
:1020500008BF70474FF000030AE000BF50EA0102DA
:1020600008BF704711F0004302D5404261EB4101C7
:102070005FEA010C02BF84460146002043F0B643EC
:1020800008BFA3F18053A3F50003BCFA8CF2083A11
:10209000A3EBC25310DB01FA02FC634400FA02FC1A
:1020A000C2F12002BCF1004F20FA02F243EB020021
:1020B00008BF20F00100704702F1200201FA02FC83
:1020C000C2F1200250EA4C0021FA02F243EB020076
:1020D00008BF20EADC7070474FF0FF0C1CEAD052BA
:1020E0001EBF1CEAD15392EA0C0F93EA0C0F6FD07B
:1020F0001A4480EA010C400218BF5FEA41211ED059
:102100004FF0006343EA501043EA5111A0FB013144
:102110000CF00040B1F5000F3EBF490041EAD37119
:102120005B0040EA010062F17F02FD2A1DD8B3F195
:10213000004F40EBC25008BF20F00100704790F004
:10214000000F0CF0004C08BF49024CEA502040EA56
:1021500051207F3AC2BFD2F1FF0340EAC25070471C
:1021600040F400004FF00003013A5DDC12F1190F5A
:10217000DCBF00F000407047C2F10002410021FACC
:1021800002F1C2F1200200FA02FC5FEA310040F1E4
:10219000000053EA4C0308BF20EADC70704792F05D
:1021A000000F00F0004C02BF400010F4000F013A95
:1021B000F9D040EA0C0093F0000F01F0004C02BF90
:1021C000490011F4000F013BF9D041EA0C018FE7FF
:1021D0000CEAD15392EA0C0F18BF93EA0C0F0AD005
:1021E00030F0004C18BF31F0004CD8D180EA01002B
:1021F00000F00040704790F0000F17BF90F0004FC4
:10220000084691F0000F91F0004F14D092EA0C0FA5
:1022100001D142020FD193EA0C0F03D14B0218BF38
:10222000084608D180EA010000F0004040F0FE407E
:1022300040F40000704740F0FE4040F4400070471A
:102240004FF0FF0C1CEAD0521EBF1CEAD15392EA99
:102250000C0F93EA0C0F69D0A2EB030280EA010C89
:1022600049024FEA402037D04FF0805343EA111122
:1022700043EA10130CF000408B4238BF5B0042F180
:102280007D024FF4000C8B4224BF5B1A40EA0C0025
:10229000B3EB510F24BFA3EB510340EA5C00B3EB57
:1022A000910F24BFA3EB910340EA9C00B3EBD10F45
:1022B00024BFA3EBD10340EADC001B0118BF5FEA97
:1022C0001C1CE0D1FD2A3FF650AF8B4240EBC250C0
:1022D00008BF20F0010070470CF0004C4CEA502081
:1022E0007F32C2BFD2F1FF0340EAC250704740F4D0
:1022F00000004FF00003013A37E792F0000F00F0C2
:10230000004C02BF400010F4000F013AF9D040EA3F
:102310000C0093F0000F01F0004C02BF490011F4D3
:10232000000F013BF9D041EA0C0195E70CEAD153CB
:1023300092EA0C0F08D142027FF47DAF93EA0C0FB2
:102340007FF470AF084676E793EA0C0F04D14B0296
:102350003FF44CAF08466EE730F0004C18BF31F048
:10236000004CCAD130F000427FF45CAF31F0004342
:102370007FF43CAF5FE700BF4FF0FF3C06E000BFDB
:102380004FF0010C02E000BF4FF0010C4DF804CDFE
:102390004FEA40024FEA41037FEA226C18BF7FEA0E
:1023A000236C11D001B052EA530C18BF90EA010F10
:1023B00058BFB2EB030088BFC81738BF6FEAE1709F
:1023C00018BF40F0010070477FEA226C02D15FEA3B
:1023D000402C05D17FEA236CE4D15FEA412CE1D0A7
:1023E0005DF8040B704700BF844608466146FFE76E
:1023F0000FB5FFF7C9FF002848BF10F1000F0FBD50
:102400004DF808EDFFF7F4FF0CBF012000205DF848
:1024100008FB00BF4DF808EDFFF7EAFF34BF0120CD
:1024200000205DF808FB00BF4DF808EDFFF7E0FF66
:1024300094BF012000205DF808FB00BF4DF808EDB7
:10244000FFF7D2FF94BF012000205DF808FB00BF1A
:102450004DF808EDFFF7C8FF34BF012000205DF8FC
:1024600008FB00BF42000ED2B2F1FE4F0BD34FF07B
:102470009E03B3EB126209D44FEA002343F00043FA
:1024800023FA02F070474FF00000704712F1610F1D
:1024900001D1420202D14FF0FF3070474FF00000EF
:1024A000704700BF13460A460146022000F052BBA7
:1024B000014B1868704700BF008CFF1F70B50F4EAE
:1024C0000F4D761BB61018BF002405D0013455F807
:1024D000043B9847A642F9D10A4E0B4D761B00F0FB
:1024E000A3FDB61018BF002406D0013455F8043BF4
:1024F0009847A642F9D170BD70BD00BF34300000CE
:10250000343000004030000034300000024B0146FF
:10251000186800F003B800BF008CFF1F2DE9F04FD2
:1025200001F10B05162D83B0064640F29F8035F071
:10253000070500F1BF80A94200F2BC8000F0F4FA68
:10254000B5F5FC7FC0F09C826B0A00F0BA80042BCA
:1025500000F28381A80900F1390E4FEA4E033830AA
:10256000C44F07EB8303A3F108015C68A14207D1C4
:10257000ACE0002A80F2AC80E468A14200F0A680C2
:10258000636823F003035A1B0F2AF2DDB9493C6943
:1025900001F1080E744500F0B381636823F0030372
:1025A0005A1B0F2A00F39981002AC1F814E0C1F8E0
:1025B00010E080F29E80B3F5007F80F06781DB0839
:1025C00003F1010C01229B1002FA03F34A6851F84F
:1025D0003C80C4F8088001EBCC091A43A9F1080338
:1025E000E3604A6041F83C40C8F80C408310012485
:1025F0009C40944200F28A80144206D120F00300ED
:102600006400144200F10400FAD007EBC009CC4684
:102610008046DCF80C108C4507D173E1002A80F26B
:102620008181C9688C4500F06D814B6823F00303FC
:102630005A1B0F2AF2DD0C46D1F80CC054F8088F53
:102640004B1945F001054D6042F00101C8F80CC07E
:102650003046CCF808807B613B61C3F80CE0C3F8DE
:1026600008E059609A5000F061FA1FE0102921D863
:1026700000F05AFA1025062302207E4F07EB830351
:10268000A3F108025C68944200F045816368E16848
:10269000A56823F00303234430465A68E96042F0FA
:1026A00001028D605A6000F041FA0834204603B000
:1026B000BDE8F08F00240C232046336003B0BDE852
:1026C000F08F80234FF0400E3F2049E770465DE7D2
:1026D0002344E1685A68A56842F00102E960304687
:1026E0008D605A6000F022FA0834204603B0BDE83D
:1026F000F08F234430465A6842F001025A6000F0DD
:1027000015FA0834204603B0BDE8F08FBC68636852
:1027100023F00308A84504D3C5EB08030F2B00F3EF
:102720008C80554BDFF860911A68D9F8003001337E
:102730002A4404EB080A00F0608102F580520F324F
:1027400022F47F6222F00F0211463046019200F01F
:10275000EFF9B0F1FF3F8346019A00F058818245BE
:1027600000F2FC80454B1968DA451144196000F00D
:102770005381D9F80000DFF810E101301BBFCAEB2C
:102780000B0A5144CEF800B019601BF0070100F0AD
:102790001781C1F10800C1F58051834408315A44C2
:1027A000C2F30B02C2EB010949463046019300F027
:1027B000BFF9431C019B00F03F81CBEB00024A4470
:1027C00042F001021968C7F808B04944BC42CBF88E
:1027D00004201960DFF8A49016D0B8F10F0F40F272
:1027E000FD806268A8F10C0323F00703E01802F0F3
:1027F00001024FF0050E1A430F2B6260C0F804E08F
:10280000C0F808E000F21C811D4BBC681A689142B8
:1028100088BF19601B4B1A689142626888BF1960B3
:1028200022F003029542A2EB050301D80F2B04DC32
:10283000304600F07BF9002438E7621943F00103C9
:1028400045F0010565603046BA60536000F06EF9EE
:102850000834204603B0BDE8F08F142B71D9542BF7
:1028600000F2A480280B00F16F0E4FEA4E036E3089
:1028700076E600BF048CFF1FD4310020D831002041
:10288000D0310020CC3100201090FF1F5A0A042ABA
:102890005ED9142A00F2B38002F15C0149005B3278
:1028A00007EB810C57F82110DFF8DC81ACF1080C44
:1028B0008C4500F088804A6822F00302934202D2DD
:1028C00089688C45F7D1D1F80CC07A68C4F80CC07F
:1028D000A160CCF80840CC6088E6631942F001079B
:1028E00045F00105656030464B610B61C3F80CE0B3
:1028F000C3F808E05F609A50083400F017F9D5E695
:102900004A6873E608F1010818F0030F0CF1080C8F
:102910007FF47FAE30E0DC68A34208BF02303FF4B2
:1029200035AEB3E60B440C465A68C96854F8085FE4
:1029300042F001025A603046E9608D6000F0F6F81E
:10294000B4E603F15C0E03F15B004FEA4E0307E6C9
:102950009A0902F1390149003832A1E7BC424A4BD9
:102960003FF400AF9C68626822F003025AE759F80E
:102970000839994540F0828010F0030F00F1FF30D4
:10298000F5D17B6823EA04037B6064009C423FF638
:10299000BDAE002C3FF4BAAE1C4240467FF435AECB
:1029A00064001C4200F10400FAD02EE6B3F5AA7FC1
:1029B00018D8E80B00F1780E4FEA4E037730CFE5D8
:1029C0004FF48051EBE60121D8F80430921001FA5F
:1029D00002F21A43C8F80420614677E70123CBF8D6
:1029E000043025E740F25452934220D8A80C00F15D
:1029F0007D0E4FEA4E037C30B2E51032A4E6542A35
:102A000026D81A0B02F16F0149006E3248E7BC6804
:102A1000626822F0030205E7CAF30B0000287FF486
:102A2000A8AE4244BB6842F001025A60ECE6FE23C5
:102A30004FF07F0E7E2093E501224FF00009C1E6A2
:102A400004F10801304600F049F9D9F80010DBE63E
:102A5000B2F5AA7F05D8DA0B02F178014900773286
:102A60001EE740F254518A4205D89A0C02F17D01CA
:102A700049007C3214E7FE217E2211E77B6884E75F
:102A8000E808431C5B00F8E5048CFF1F70B4840762
:102A900046D0541E002A41D0CDB2034602E0621E49
:102AA000E4B3144603F8015B9A07F8D1032C2ED93E
:102AB000CDB245EA05250F2C45EA054519D903F1A4
:102AC00010022646103E0F2E42F8105C42F80C5CB5
:102AD00042F8085C42F8045C02F11002F2D8A4F15A
:102AE000100222F00F0204F00F041032032C1344E2
:102AF0000DD91E462246043A032A46F8045BFAD84A
:102B0000221F22F003020432134404F003042CB108
:102B1000C9B21C4403F8011BA342FBD170BC70472F
:102B200014460346C2E700BF704700BF704700BFAE
:102B300038B5074C0023054608462360FDF748FFDB
:102B4000431C00D038BD2368002BFBD02B6038BD60
:102B5000143200202DE9F047254C2568D5F848416E
:102B60000646884692469946C4B360681F2817DC1B
:102B7000431C76B104EB80050122C5F888A0D4F887
:102B8000881182401143022EC4F88811C5F80891BB
:102B90001ED00230636044F820800020BDE8F0873A
:102BA000144B03B34FF4C870FFF7B0FC0446D0B128
:102BB000D5F84831002780E88800C5F848413846F4
:102BC0000123C4F88871C4F88C71002EE1D0D1E7DC
:102BD000D4F88C110A43C4F88C21DAE705F5A67401
:102BE000C5F84841C1E74FF0FF30BDE8F08700BFAE
:102BF000243000000D250000024B13B1024800F004
:102C000005B8704700000000192C000000230146A1
:102C10001A461846FFF79EBF38B5074D074C2C1BC8
:102C2000A41005D0013C55F8043D9847002CF9D17B
:102C3000BDE8384000F004BA0000000000000000C9
:102C4000F8B5234F0C460646FFF76EFFBB685D687C
:102C500025F00305291B01F6EF7121F47F6121F0B6
:102C60000F01A1F58054B4F5805F07DB00213046E9
:102C7000FFF75EFFBB682B44984204D03046FFF755
:102C800055FF0020F8BD61423046FFF751FF01308B
:102C90000DD0104BBA6819682D1B45F00105304660
:102CA000091B55601960FFF741FF0120F8BD0021A5
:102CB0003046FFF73DFFBA68831A0F2BDEDD064C66
:102CC0000449246843F00103001B53600860D5E702
:102CD000048CFF1FD83100201090FF1F002945D021
:102CE0002DE9F0410D468046FFF71EFF55F8047CA4
:102CF0006A4927F00103A5F10804E2188E685068BC
:102D0000B24220F0030062D0FE0750600BD455F8A9
:102D1000087CE41B01F1080EA56875453B446FD0A3
:102D2000E768EF60BD6015186D68ED0742D543F0A8
:102D300001026260E350B3F5007F18D2DB085A1C31
:102D40004D6851F83270A76001209B1000FA03F320
:102D500001EBC2001D430838E0604D6041F832408D
:102D6000FC604046BDE8F041FFF7E0BE70475A0AFC
:102D7000042A53D89A0902F139077F0002F1380575
:102D800001EB870051F827204449083890424DD084
:102D9000516821F003018B4202D292689042F7D130
:102DA000D068E060A2608460D4604046BDE8F04135
:102DB000FFF7BCBE95683A4FBD4203443FD0D06890
:102DC000E86043F0010285606260E350B3E7FF070B
:102DD000034407D455F8082CA41A1344A068E268E9
:102DE000C26090602F4A126843F001009342606015
:102DF0008C60B6D32C4B40461968FFF721FFB0E733
:102E000011184968C90744D49168D268CA6003445C
:102E100043F0010091606060E350A2E7142A17D8E4
:102E200002F15C077F0002F15B05A9E7AA104B687D
:102E3000012505FA02F213434B600246B1E743F065
:102E400001024C610C61E560A5606260E35088E7B7
:102E5000542A06D81A0B02F16F077F0002F16E05A3
:102E60008EE7B2F5AA7F06D8DA0B02F178077F0069
:102E700002F1770584E740F25450824206D89A0C5A
:102E800002F17D077F0002F17C0579E7FE277E25B0
:102E900076E743F001026260E35062E7048CFF1FB3
:102EA0000C8CFF1F0C90FF1FD4310020FFFFFFF0A0
:102EB000401004010208208000FFFFFF4008FE438D
:102EC00040A004404408FE4344A004400018FE43D0
:102ED00000C004403000FE43309004403400FE4304
:102EE000349004401C18FE431CC004401018FE43DC
:102EF00010C004400818FE4308C004400C18FE43EC
:102F00000CC004400C10FE430CB004401010FE43F3
:102F100010B004401810FE4318B004401C10FE43CB
:102F20001CB004401410FE4314B004400418FE43C7
:102F300004C004400010FE4300B004400008FE43FB
:102F400000A004400408FE4304A004400C08FE4313
:102F50000CA004400808FE4308A004401418FE43D7
:102F600014C004401818FE4318C004400410FE4367
:102F700004B004400810FE4308B004401400FE43AF
:102F8000149004404C08FE434CA004400420FE432F
:102F900004D004402410FE4324B004402010FE431B
:102FA00020B004402810FE4328B004402C10FE43FB
:102FB0002CB004400020FE4300D004404808FE43EB
:102FC00048A004401000FE4310900440001519155D
:102FD000000100003487FF1F120000000002000003
:102FE0006087FF1F4300000000030000BC87FF1F35
:102FF00000000000010309044887FF1F00000000D3
:1030000002030904A487FF1F000000000303090452
:10301000C087FF1F0000000000000000000000004B
:1030200000000000D887FF1FF8B500BFF8BC08BC3F
:103030009E467047F92B0000350400005106000041
:04304000F8B500BF20
:083044006CEEFF7F01000000AB
:10304C00000000001832002008000000FFFFFFFF06
:10305C00010A04001201100102000040C016830492
:10306C00750201020301000018035400650065009D
:10307C006E00730079006400750069006E006F00CB
:10308C0009024300020100C03209040000010202DF
:10309C00010005240010010524010101042402068D
:1030AC0005240600010705820310004009040100F5
:1030BC00020A000000070503024000000705840215
:1030CC00400000001603550053004200200053003E
:1030DC0065007200690061006C00000004030904C3
:1030EC000C030000000000000000000000000000C5
:1030FC00000000000000010000000000C48AFF1F57
:10310C002C8BFF1F948BFF1F0000000000000000A1
:10311C0000000000000000000000000000000000A3
:10312C000000000000000000000000000000000093
:10313C000000000000000000000000000000000083
:10314C000000000000000000000000000000000073
:10315C000000000000000000000000000000000063
:10316C000000000000000000000000000000000053
:10317C000000000000000000000000000000000043
:10318C000000000000000000000000000000000033
:10319C000000000000000000000000000000000023
:1031AC0001000000000000000E33CDAB34126DE6C0
:1031BC00ECDE05000B000000000000000000000029
:1031CC0000000000000000000000000000000000F3
:1031DC0000000000000000000000000000000000E3
:1031EC0000000000000000000000000000000000D3
:1031FC0000000000000000000000000000000000C3
:10352C00D887FF1F0000000000000000048CFF1F64
:10353C00048CFF1F0C8CFF1F0C8CFF1F148CFF1FA7
:10354C00148CFF1F1C8CFF1F1C8CFF1F248CFF1F57
:10355C00248CFF1F2C8CFF1F2C8CFF1F348CFF1F07
:10356C00348CFF1F3C8CFF1F3C8CFF1F448CFF1FB7
:10357C00448CFF1F4C8CFF1F4C8CFF1F548CFF1F67
:10358C00548CFF1F5C8CFF1F5C8CFF1F648CFF1F17
:10359C00648CFF1F6C8CFF1F6C8CFF1F748CFF1FC7
:1035AC00748CFF1F7C8CFF1F7C8CFF1F848CFF1F77
:1035BC00848CFF1F8C8CFF1F8C8CFF1F948CFF1F27
:1035CC00948CFF1F9C8CFF1F9C8CFF1FA48CFF1FD7
:1035DC00A48CFF1FAC8CFF1FAC8CFF1FB48CFF1F87
:1035EC00B48CFF1FBC8CFF1FBC8CFF1FC48CFF1F37
:1035FC00C48CFF1FCC8CFF1FCC8CFF1FD48CFF1FE7
:10360C00D48CFF1FDC8CFF1FDC8CFF1FE48CFF1F96
:10361C00E48CFF1FEC8CFF1FEC8CFF1FF48CFF1F46
:10362C00F48CFF1FFC8CFF1FFC8CFF1F048DFF1FF5
:10363C00048DFF1F0C8DFF1F0C8DFF1F148DFF1FA2
:10364C00148DFF1F1C8DFF1F1C8DFF1F248DFF1F52
:10365C00248DFF1F2C8DFF1F2C8DFF1F348DFF1F02
:10366C00348DFF1F3C8DFF1F3C8DFF1F448DFF1FB2
:10367C00448DFF1F4C8DFF1F4C8DFF1F548DFF1F62
:10368C00548DFF1F5C8DFF1F5C8DFF1F648DFF1F12
:10369C00648DFF1F6C8DFF1F6C8DFF1F748DFF1FC2
:1036AC00748DFF1F7C8DFF1F7C8DFF1F848DFF1F72
:1036BC00848DFF1F8C8DFF1F8C8DFF1F948DFF1F22
:1036CC00948DFF1F9C8DFF1F9C8DFF1FA48DFF1FD2
:1036DC00A48DFF1FAC8DFF1FAC8DFF1FB48DFF1F82
:1036EC00B48DFF1FBC8DFF1FBC8DFF1FC48DFF1F32
:1036FC00C48DFF1FCC8DFF1FCC8DFF1FD48DFF1FE2
:10370C00D48DFF1FDC8DFF1FDC8DFF1FE48DFF1F91
:10371C00E48DFF1FEC8DFF1FEC8DFF1FF48DFF1F41
:10372C00F48DFF1FFC8DFF1FFC8DFF1F048EFF1FF0
:10373C00048EFF1F0C8EFF1F0C8EFF1F148EFF1F9D
:10374C00148EFF1F1C8EFF1F1C8EFF1F248EFF1F4D
:10375C00248EFF1F2C8EFF1F2C8EFF1F348EFF1FFD
:10376C00348EFF1F3C8EFF1F3C8EFF1F448EFF1FAD
:10377C00448EFF1F4C8EFF1F4C8EFF1F548EFF1F5D
:10378C00548EFF1F5C8EFF1F5C8EFF1F648EFF1F0D
:10379C00648EFF1F6C8EFF1F6C8EFF1F748EFF1FBD
:1037AC00748EFF1F7C8EFF1F7C8EFF1F848EFF1F6D
:1037BC00848EFF1F8C8EFF1F8C8EFF1F948EFF1F1D
:1037CC00948EFF1F9C8EFF1F9C8EFF1FA48EFF1FCD
:1037DC00A48EFF1FAC8EFF1FAC8EFF1FB48EFF1F7D
:1037EC00B48EFF1FBC8EFF1FBC8EFF1FC48EFF1F2D
:1037FC00C48EFF1FCC8EFF1FCC8EFF1FD48EFF1FDD
:10380C00D48EFF1FDC8EFF1FDC8EFF1FE48EFF1F8C
:10381C00E48EFF1FEC8EFF1FEC8EFF1FF48EFF1F3C
:10382C00F48EFF1FFC8EFF1FFC8EFF1F048FFF1FEB
:10383C00048FFF1F0C8FFF1F0C8FFF1F148FFF1F98
:10384C00148FFF1F1C8FFF1F1C8FFF1F248FFF1F48
:10385C00248FFF1F2C8FFF1F2C8FFF1F348FFF1FF8
:10386C00348FFF1F3C8FFF1F3C8FFF1F448FFF1FA8
:10387C00448FFF1F4C8FFF1F4C8FFF1F548FFF1F58
:10388C00548FFF1F5C8FFF1F5C8FFF1F648FFF1F08
:10389C00648FFF1F6C8FFF1F6C8FFF1F748FFF1FB8
:1038AC00748FFF1F7C8FFF1F7C8FFF1F848FFF1F68
:1038BC00848FFF1F8C8FFF1F8C8FFF1F948FFF1F18
:1038CC00948FFF1F9C8FFF1F9C8FFF1FA48FFF1FC8
:1038DC00A48FFF1FAC8FFF1FAC8FFF1FB48FFF1F78
:1038EC00B48FFF1FBC8FFF1FBC8FFF1FC48FFF1F28
:1038FC00C48FFF1FCC8FFF1FCC8FFF1FD48FFF1FD8
:10390C00D48FFF1FDC8FFF1FDC8FFF1FE48FFF1F87
:10391C00E48FFF1FEC8FFF1FEC8FFF1FF48FFF1F37
:10392C00F48FFF1FFC8FFF1FFC8FFF1F0000020096
:04393C00FFFFFFFF8B
:00000001FF
